:100000000C946B000C9493000C9493000C9493004C
:100010000C9493000C9493000C9493000C94930014
:100020000C9493000C9493000C9493000C94930004
:100030000C9493000C9493000C9493000C949300F4
:100040000C9480030C9493000C94C7060C94F9064E
:100050000C9493000C9493000C9493000C949300D4
:100060000C9493000C9493007B027F028702A302FE
:1000700097029A02A302A0020000000800020100F9
:100080000003040700000000000000000102040853
:1000900010204080010204081020010204081020F2
:1000A000040404040404040402020202020203031E
:1000B00003030303000000002300260029000000C2
:1000C0000000250028002B0000000000240027006D
:1000D0002A00DC00290711241FBECFEFD8E0DEBFC5
:1000E000CDBF11E0A0E0B1E0E0E6FCE102C0059088
:1000F0000D92A435B107D9F722E0A4E5B1E001C023
:100100001D92A332B207E1F710E0C6EDD0E004C0C3
:100110002297FE010E94BD0BC23DD107C9F70E9484
:100120006D070C942E0E0C940000EF92FF920F932B
:1001300026E040E855E260E070E082E891E00E944D
:1001400065068DE7E82EF12C0AE02BE043E061E044
:1001500070E084E591E00E94D60108E029E045E0E6
:100160006FEF7FEF84E591E00E94D60146E064E006
:1001700070E084E591E00E940D0244E062E070E0EE
:1001800084E591E00E940D0247E061E070E084E5C3
:1001900091E00E940D0284E591E00E94E60060ED8E
:1001A00077E080E090E00F91FF90EF900C94ED03EA
:1001B00084E591E00C945D02109278011092770131
:1001C00082E080935401809355010895EF92FF924D
:1001D0000F931F93CF93DF937C018C010E5F1F4F12
:1001E000C0E0D0E0F70183A190E0C817D90738F448
:1001F000C8010E94DE022196045F1F4FF3CFDF91FA
:10020000CF911F910F91FF90EF900895CF92DF92C1
:10021000EF92FF920F931F93CF93DF937C016B01BB
:100220008C010E5F1F4FC0E0D0E0F70183A190E08A
:10023000C817D90720F5B601C8010E94FA0266E086
:1002400071E082E891E00E94C8074AE050E0BE01F8
:1002500082E891E00E94BC086DE071E082E891E0E4
:100260000E94C807F801628173814AE050E082E889
:1002700091E00E9480082196045F1F4FD6CFDF9146
:10028000CF911F910F91FF90EF90DF90CF90089545
:10029000EF92FF920F931F93CF93DF937C018C011A
:1002A0000E5F1F4FC0E0D0E0F70183A190E0C817B8
:1002B000D90738F4C8010E9467032196045F1F4FD5
:1002C000F3CFDF91CF911F910F91FF90EF900895A1
:1002D000AF92BF92CF92DF92EF92FF920F931F9354
:1002E000CF93DF9300D000D000D0CDB7DEB76C0144
:1002F0001616170624F4AA24A394B12C03C0AA242A
:10030000AA94BA2C86010E5F1F4FE12CF12CF60146
:1003100083A190E0E816F906C0F5F801828593857F
:100320008A159B0519F460E070E003C0F601608156
:1003300070E0C8010E94FA0266E171E0CE01019608
:100340000E943009B701CE0101960E94B3096CE109
:1003500071E0CE0101960E947209F80162817381F9
:10036000CE0101960E948209BE016F5F7F4F82E835
:1003700091E00E94D507CE0101960E94C208FFEFCE
:10038000EF1AFF0A045F1F4FC2CF26960FB6F894EC
:10039000DEBF0FBECDBFDF91CF911F910F91FF90B8
:1003A000EF90DF90CF90BF90AF900895CF92DF9203
:1003B000EF92FF920F931F93CF93DF93CDB7DEB7EA
:1003C0002C970FB6F894DEBF0FBECDBF6C01FC01B9
:1003D00013A181E0810F83A3CE0101960E94AF0299
:1003E000D601FCE01F9FA00DB11D112412968CE0D8
:1003F000FE01319601900D928A95E1F72C960FB689
:10040000F894DEBF0FBECDBFDF91CF911F910F914A
:10041000FF90EF90DF90CF900895FF920F931F937E
:10042000CF93DF9300D01F92CDB7DEB78C01FC01D4
:10043000F4A081E08F0D84A3CE0101960E946B038E
:100440008F2D90E0FC01EE0FFF1FE80FF91FE00F6A
:10045000F11F89819A81AB81828F938FA48F0F9036
:100460000F900F90DF91CF911F910F91FF90089502
:10047000DF92EF92FF920F931F93CF93DF937C0154
:100480008C01065E1F4FC0E0D0E0D12CF70124A103
:1004900030E0C217D30744F4C8010E947303D80E9A
:1004A00021960D5F1F4FF2CF8D2DDF91CF911F91C0
:1004B0000F91FF90EF90DF9008951F93CF93DF93FC
:1004C000EC010E943802182F66E271E082E891E0A8
:1004D0000E94C8074AE050E0612F82E891E00E9444
:1004E000A508412F50E048305105A8F5FA01EC5C11
:1004F000FF4F0C94BB0BCE010E94E60010C066EFCC
:100500007FEFCE01DF91CF911F910C946801CE0156
:100510000E94E600688170E0CE010E9406016BEF48
:100520007FEFCE010E94680165E070E0EACF6AE0EB
:1005300070E0E7CFCE01DF91CF911F910C9448017D
:10054000CE010E94E600688170E0CE01DF91CF917C
:100550001F910C940601DF91CF911F910895EF92A6
:10056000FF920F93CF93DF931F92CDB7DEB7FC01BD
:10057000842FA42FB0E0B583A483A22FB0E0B7836B
:10058000A683A02FB0E0B187A087F182E0827387B5
:1005900062871382128261E029830E94EA0461E08B
:1005A0002981822F0E94EA0461E0802F0F90DF9161
:1005B000CF910F91FF90EF900C94EA04CF93DF93CB
:1005C000EC0160E08E810E94230561E08885DF9167
:1005D000CF910C9423056F3F710509F02CF477FF40
:1005E00005C060E070E002C06FEF70E0FC01848144
:1005F0000C946204AF92BF92CF92DF92EF92FF927F
:100600000F931F93CF93DF93EC015B010881198156
:100610008FEF90E0801B910BA89EB001A99E700DFA
:10062000B89E700D1124882777FD8095982F0E9421
:10063000E50A20E030E048EC52E40E944A0A6B01EF
:100640007C0120E030E0A9010E94950B20E030E021
:1006500040E05FE387FD05C0C701B6010E94E609DF
:1006600004C0C701B6010E94E5090E94B20A600FEA
:10067000711F7B836A83AB2819F460E070E01AC0B5
:1006800020E030E0A901C701B6010E94950B20E0EF
:1006900030E040E05FE387FD05C0C701B6010E947E
:1006A000E60904C0C701B6010E94E5090E94B20A2A
:1006B000600F711FCE01DF91CF911F910F91FF90BD
:1006C000EF90DF90CF90BF90AF900C94EB0260E082
:1006D00070E00C94EB02FC01842F408372836183F1
:1006E00060E00C94EA04CF93DF93EC0188810E94D0
:1006F00059059981989F802D1124DF91CF910895FC
:100700001F920F920FB60F9211242F933F938F9346
:100710009F93AF93BF9380917A0190917B01A091B9
:100720007C01B0917D013091790123E0230F2D37B9
:1007300020F40196A11DB11D05C026E8230F0296E5
:10074000A11DB11D2093790180937A0190937B01C3
:10075000A0937C01B0937D0180917E0190917F01F7
:10076000A0918001B09181010196A11DB11D8093DE
:100770007E0190937F01A0938001B0938101BF918E
:10078000AF919F918F913F912F910F900FBE0F903E
:100790001F9018953FB7F89480917E0190917F014A
:1007A000A0918001B091810126B5A89B05C02F3F83
:1007B00019F00196A11DB11D3FBF6627782F892F23
:1007C0009A2F620F711D811D911D42E0660F771FE8
:1007D000881F991F4A95D1F708958F929F92AF92E3
:1007E000BF92CF92DF92EF92FF926B017C010E9449
:1007F000CA034B015C01C114D104E104F104F1F01E
:100800000E94E4090E94CA03681979098A099B09B0
:10081000683E73408105910570F321E0C21AD1084A
:10082000E108F10888EE880E83E0981EA11CB11C37
:10083000C114D104E104F10429F7DDCFFF90EF905A
:10084000DF90CF90BF90AF909F908F900895789455
:1008500084B5826084BD84B5816084BD85B58260C5
:1008600085BD85B5816085BDEEE6F0E08081816063
:100870008083E1E8F0E01082808182608083808163
:1008800081608083E0E8F0E0808181608083E1EB3B
:10089000F0E0808184608083E0EBF0E08081816023
:1008A0008083EAE7F0E080818460808380818260D9
:1008B00080838081816080838081806880831092C2
:1008C000C10008951F93CF93DF93182FEB0161E0D0
:1008D0000E94EA04209711F460E004C0CF3FD105E4
:1008E00039F461E0812FDF91CF911F910C942305A2
:1008F000E12FF0E0E858FF4FE491E330F9F048F4DD
:10090000E130B9F0E230A1F584B5806284BDC8BDA4
:1009100034C0E730E9F0E83019F1E43049F580916E
:100920008000806280938000D0938B00C0938A0007
:1009300024C084B5806884BDC7BD1FC0809180007D
:10094000806880938000D0938900C093880015C090
:100950008091B00080688093B000C093B3000DC058
:100960008091B00080628093B000C093B40005C055
:10097000C038D1050CF0B5CFAFCFDF91CF911F912B
:100980000895833081F028F4813099F08230A1F00D
:1009900008958730A9F08830B9F08430D1F480917F
:1009A00080008F7D03C0809180008F7780938000CE
:1009B000089584B58F7702C084B58F7D84BD089576
:1009C0008091B0008F7703C08091B0008F7D8093BD
:1009D000B0000895CF93DF9390E0FC01E457FF4F00
:1009E0002491FC01E056FF4F8491882349F190E067
:1009F000880F991FFC01E853FF4FA591B4918254D1
:100A00009F4FFC01C591D4919FB7611108C0F89424
:100A10008C91209582238C93888182230AC0623036
:100A200051F4F8948C91322F309583238C938881E4
:100A3000822B888304C0F8948C91822B8C939FBF67
:100A4000DF91CF9108950F931F93CF93DF931F9260
:100A5000CDB7DEB7282F30E0F901E858FF4F849179
:100A6000F901E457FF4F1491F901E056FF4F04914B
:100A70000023C9F0882321F069830E94C1046981A1
:100A8000E02FF0E0EE0FFF1FE254FF4FA591B4916D
:100A90009FB7F8948C91611103C01095812301C018
:100AA000812B8C939FBF0F90DF91CF911F910F915E
:100AB0000895CF93DF93282F30E0F901E858FF4FD6
:100AC0008491F901E457FF4FD491F901E056FF4FAB
:100AD000C491CC2391F081110E94C104EC2FF0E06D
:100AE000EE0FFF1FEC54FF4FA591B4912C912D23D5
:100AF00081E090E021F480E002C080E090E0DF91AE
:100B0000CF910895FC01818D228D90E0805C9F4FF4
:100B1000821B91098F7399270895FC01918D828D15
:100B2000981731F0828DE80FF11D858D90E00895C2
:100B30008FEF9FEF0895FC01918D828D981761F0E2
:100B4000828DDF01A80FB11D5D968C91928D9F5F04
:100B50009F73928F90E008958FEF9FEF08958FE13C
:100B600097E0892B49F080E090E0892B29F00E94E2
:100B70001F0781110C9400000895FC01848DDF0192
:100B8000A80FB11DA35ABF4F2C91848D90E0019600
:100B90008F739927848FA689B7892C93A089B189EF
:100BA0008C9180648C93938D848D981306C00288F9
:100BB000F389E02D80818F7D80830895CF93DF932B
:100BC000EC01888D8823C9F0EA89FB89808185FD45
:100BD00005C0A889B9898C9186FD0FC00FB607FCA6
:100BE000F5CF808185FFF2CFA889B9898C9185FFE7
:100BF000EDCFCE010E94BD05E7CFDF91CF910895E3
:100C0000CF92DF92FF920F931F93CF93DF931F92A8
:100C1000CDB7DEB76C0181E0D60158968C9358971A
:100C20005B969C915B975C968C915C97981307C040
:100C30005096ED91FC915197808185FD2EC0F60173
:100C4000038D10E00F5F1F4F0F731127F02EF60179
:100C5000848DF81211C00FB607FCF9CFD60150965B
:100C6000ED91FC915197808185FFF1CFC601698399
:100C70000E94BD056981EBCF838DE80FF11DE35A1A
:100C8000FF4F6083D6015B960C935B975296ED9174
:100C9000FC915397808180620CC0D6015696ED91ED
:100CA000FC91579760835096ED91FC91519780810C
:100CB0008064808381E090E00F90DF91CF911F915D
:100CC0000F91FF90DF90CF900895BF92CF92DF9267
:100CD000EF92FF92CF93DF93EC016A017B01B22E7A
:100CE000E889F98982E08083411581EE5807610522
:100CF0007105A1F060E079E08DE390E0A701960135
:100D00000E94990B21503109410951095695479587
:100D100037952795211580E1380798F0E889F989FA
:100D2000108260E874E88EE190E0A70196010E94CD
:100D3000990B21503109410951095695479537952D
:100D40002795EC85FD853083EE85FF852083188E01
:100D5000EC89FD89B082EA89FB898081806180838A
:100D6000EA89FB89808188608083EA89FB898081A8
:100D700080688083EA89FB8980818F7D8083DF9111
:100D8000CF91FF90EF90DF90CF90BF9008951F928A
:100D90000F920FB60F9211242F938F939F93EF937F
:100DA000FF93E0919201F09193018081E09198018D
:100DB000F091990182FD12C0908180919B018F5F1B
:100DC0008F7320919C01821751F0E0919B01F0E01C
:100DD000EE57FE4F958F80939B0101C08081FF915C
:100DE000EF919F918F912F910F900FBE0F901F90B9
:100DF00018951F920F920FB60F9211242F933F93C5
:100E00004F935F936F937F938F939F93AF93BF9312
:100E1000EF93FF9382E891E00E94BD05FF91EF916F
:100E2000BF91AF919F918F917F916F915F914F9102
:100E30003F912F910F900FBE0F901F90189582E851
:100E400091E00E94820521E0892B09F420E0822FA5
:100E50000895109285011092840188EE93E0A0E03D
:100E6000B0E08093860190938701A0938801B093AE
:100E7000890187E391E0909383018093820185EC5F
:100E800090E090938F0180938E0184EC90E090939A
:100E900091018093900180EC90E090939301809376
:100EA000920181EC90E0909395018093940182EC03
:100EB00090E0909397018093960186EC90E0909358
:100EC00099018093980110929B0110929C011092BD
:100ED0009D0110929E01089508950E9427040E948A
:100EE0006C070E949500CFEAD5E00E94D8002097B9
:100EF000E1F30E94AF05F9CFCF92DF92EF92FF921C
:100F00000F931F93CF93DF937C016A01EB0100E005
:100F100010E00C151D0571F06991D701ED91FC9160
:100F20000190F081E02DC7010995892B19F00F5F21
:100F30001F4FEFCFC801DF91CF911F910F91FF900D
:100F4000EF90DF90CF9008956115710581F0DB017E
:100F50000D900020E9F7AD0141505109461B570B98
:100F6000DC01ED91FC910280F381E02D099480E099
:100F700090E00895DC01ED91FC91DB0114964D9118
:100F80005C9115976D917C910280F381E02D09941D
:100F90000C94A407DC01ED91FC910190F081E02D0F
:100FA000099463E471E00C94A4070F931F93CF930B
:100FB000DF93EC010E94BA078C01CE010E94D10799
:100FC000800F911FDF91CF911F910F9108958F9204
:100FD0009F92AF92BF92DF92EF92FF920F931F9377
:100FE000CF93DF93CDB7DEB7A1970FB6F894DEBFEE
:100FF0000FBECDBF7C01F42FD52ECB0119A222301C
:1010000008F42AE08E010F5D1F4F822E912CA12C37
:10101000B12C6F2F7D2DA50194010E94990BF22F09
:10102000D32ECA01015011096A3014F4E0E301C063
:10103000E7E3E60FD801EC93232B242B252B49F76C
:10104000B801C7010E94A407A1960FB6F894DEBFAD
:101050000FBECDBFDF91CF911F910F91FF90EF9009
:10106000DF90BF90AF909F908F900895CF92DF92C6
:10107000EF92FF920F931F93CF93DF93EC016A01DE
:101080007B012115310579F4E881F9810190F08126
:10109000E02D642FDF91CF911F910F91FF90EF9082
:1010A000DF90CF9009942A303105E9F477FF1AC018
:1010B0006DE20E94CA078C0144275527BA014C19DA
:1010C0005D096E097F092AE0CE010E94E707800FC3
:1010D000911FDF91CF911F910F91FF90EF90DF90C3
:1010E000CF9008952AE0B701A601CE01DF91CF91FC
:1010F0001F910F91FF90EF90DF90CF900C94E70736
:101100000F931F93CF93DF93EC019A01AB016627F6
:1011100057FD6095762F0E9436088C01CE010E9403
:10112000D107800F911FDF91CF911F910F910895EB
:101130002115310541F4DC01ED91FC910190F08124
:10114000E02D642F09940C94E7070F931F93CF931E
:10115000DF93EC019A01462F50E060E070E00E94BE
:1011600098088C01CE010E94D107800F911FDF915A
:10117000CF911F910F9108959A01AB0160E070E04B
:101180000C949808FC01808191810C94590CCF93A8
:10119000DF93EC0188819981009711F00E94590C2E
:1011A000198218821D821C821B821A82DF91CF91C4
:1011B00008950F931F93CF93DF93EC018B016F5F23
:1011C0007F4F888199810E94E80C009731F09983C4
:1011D00088831B830A8381E001C080E0DF91CF9187
:1011E0001F910F910895CF93DF93EC01888199812E
:1011F000892B29F08A819B818617970760F4CE019D
:101200000E94D908882341F08C819D81892B19F493
:10121000E881F981108281E0DF91CF910895EF920A
:10122000FF920F931F93CF93DF93EC017B018A0111
:10123000BA010E94F308811104C0CE010E94C708C0
:1012400007C01D830C83B701888199810E94BB0D63
:10125000CE01DF91CF911F910F91FF90EF900895F4
:10126000FC01118210821382128215821482611590
:10127000710559F0FB0101900020E9F7AF014150E1
:101280005109461B570B0C940F090895EF92FF92DA
:101290000F931F93CF93DF93EC017B010C811D8192
:1012A0006115710511F480E016C04115510591F0EA
:1012B000040F151FB8010E94F3088823A1F32881A9
:1012C00039818C819D81B701820F931F0E94BB0DD4
:1012D0001D830C8381E0DF91CF911F910F91FF90CF
:1012E000EF9008956115710559F0FB010190002000
:1012F000E9F7AF0141505109461B570B0C944609C1
:1013000080E00895EF92FF920F931F93CF93DF93A6
:10131000CDB7DEB728970FB6F894DEBF0FBECDBFAE
:101320007C01CB014AE08E010F5F1F4FB8010E9484
:10133000C20DF80101900020E9F7AF0141505109B9
:10134000401B510BB801C7010E94460928960FB6F1
:10135000F894DEBF0FBECDBFDF91CF911F910F91EB
:10136000FF90EF900895EF92FF920F931F93CF930A
:10137000DF93CDB7DEB727970FB6F894DEBF0FBE69
:10138000CDBF7C01CB014AE08E010F5F1F4FB8013A
:101390000E94CD0DF80101900020E9F7AF01415006
:1013A0005109401B510BB801C7010E9446092796FD
:1013B0000FB6F894DEBF0FBECDBFDF91CF911F9166
:1013C0000F91FF90EF90089508955058BB27AA27DA
:1013D0000ED071C162D130F067D120F031F49F3F5F
:1013E00011F41EF457C10EF4E095E7FB4DC1E92F4F
:1013F00073D180F3BA17620773078407950718F053
:1014000071F49EF58BC10EF4E0950B2EBA2FA02D32
:101410000B01B90190010C01CA01A0011124FF27A1
:10142000591B99F0593F50F4503E68F11A16F0409C
:10143000A22F232F342F4427585FF3CF469537959B
:101440002795A795F0405395C9F77EF41F16BA0B60
:10145000620B730B840BBAF09150A1F0FF0FBB1F0E
:10146000661F771F881FC2F70EC0BA0F621F731F57
:10147000841F48F4879577956795B795F7959E3FB4
:1014800008F0B3CF9395880F08F09927EE0F979542
:10149000879508950CD00FC107D140F0FED030F0F1
:1014A00021F45F3F19F0F0C0511139C1F3C014D1DC
:1014B00098F39923C9F35523B1F3951B550BBB271B
:1014C000AA2762177307840738F09F5F5F4F220FC8
:1014D000331F441FAA1FA9F333D00E2E3AF0E0E8C1
:1014E00030D091505040E695001CCAF729D0FE2F0D
:1014F00027D0660F771F881FBB1F2617370748079F
:10150000AB07B0E809F0BB0B802DBF01FF27935854
:101510005F4F2AF09E3F510568F0B6C000C15F3FA3
:10152000ECF3983EDCF3869577956795B795F7953C
:101530009F5FC9F7880F911D9695879597F9089534
:10154000E1E0660F771F881FBB1F621773078407D0
:10155000BA0720F0621B730B840BBA0BEE1F88F7DF
:10156000E095089504D06894B111D9C00895BCD015
:1015700088F09F5790F0B92F9927B751A0F0D1F07C
:10158000660F771F881F991F1AF0BA95C9F712C006
:10159000B13081F0C3D0B1E00895C0C0672F782F7B
:1015A0008827B85F39F0B93FCCF386957795679572
:1015B000B395D9F73EF490958095709561957F4FDE
:1015C0008F4F9F4F0895E89409C097FB3EF4909584
:1015D0008095709561957F4F8F4F9F4F9923A9F00C
:1015E000F92F96E9BB279395F6958795779567959B
:1015F000B795F111F8CFFAF4BB0F11F460FF1BC0DF
:101600006F5F7F4F8F4F9F4F16C0882311F096E971
:1016100011C0772321F09EE8872F762F05C066231F
:1016200071F096E8862F70E060E02AF09A95660FD8
:10163000771F881FDAF7880F9695879597F9089591
:10164000990F0008550FAA0BE0E8FEEF16161706D3
:10165000E807F907C0F012161306E407F50798F03B
:10166000621B730B840B950B39F40A2661F0232B54
:10167000242B252B21F408950A2609F4A140A695D0
:101680008FEF811D811D089597F99F6780E870E0B5
:1016900060E008959FEF80EC089500240A941616E8
:1016A000170618060906089500240A941216130650
:1016B000140605060895092E0394000C11F48823DE
:1016C00052F0BB0F40F4BF2B11F460FF04C06F5FFA
:1016D0007F4F8F4F9F4F089557FD9058440F551FD0
:1016E00059F05F3F71F04795880F97FB991F61F0A4
:1016F0009F3F79F087950895121613061406551F1B
:10170000F2CF4695F1DF08C0161617061806991F86
:10171000F1CF86957105610508940895E894BB277B
:1017200066277727CB0197F908958ADF08F48FEFB2
:101730000895A1E21A2EAA1BBB1BFD010DC0AA1F12
:10174000BB1FEE1FFF1FA217B307E407F50720F02A
:10175000A21BB30BE40BF50B661F771F881F991FA5
:101760001A9469F760957095809590959B01AC01EE
:10177000BD01CF010895EE0FFF1F0590F491E02DFC
:101780000994CF93DF938230910510F482E090E0CA
:10179000E0912102F091220220E030E0A0E0B0E0F0
:1017A000309739F14081518148175907B8F04817EF
:1017B000590771F482819381109729F013969C93B5
:1017C0008E9312972CC0909322028093210227C0FF
:1017D0002115310531F04217530718F0A901DB013B
:1017E00001C0EF019A01BD01DF010280F381E02D0C
:1017F000D7CF21153105F9F0281B390B24303105DD
:1018000080F48A819B816115710521F0FB0193832E
:10181000828304C09093220280932102FE013296BB
:1018200044C0FE01E20FF31F8193919322503109CE
:10183000398328833AC020911F0230912002232B44
:1018400041F4209102013091030130932002209352
:101850001F0220910001309101012115310541F451
:101860002DB73EB74091040150910501241B350B63
:10187000E0911F02F0912002E217F307A0F42E1B63
:101880003F0B2817390778F0AC014E5F5F4F2417E4
:10189000350748F04E0F5F1F5093200240931F0200
:1018A0008193919302C0E0E0F0E0CF01DF91CF910E
:1018B0000895CF93DF93009709F487C0FC01329716
:1018C00013821282C0912102D0912202209781F4CA
:1018D00020813181280F391F80911F0290912002B1
:1018E0008217930779F5F0932002E0931F026DC0F1
:1018F000DE0120E030E0AE17BF0750F412964D91A4
:101900005C9113979D014115510509F1DA01F3CF5F
:10191000B383A28340815181840F951F8A179B074F
:1019200071F48D919C911197840F951F029691836C
:10193000808312968D919C911397938382832115B6
:10194000310529F4F0932202E09321023EC0D9012F
:101950001396FC93EE9312974D915D91A40FB51FD2
:10196000EA17FB0779F480819181840F951F029615
:10197000D90111969C938E938281938113969C93A7
:101980008E931297E0E0F0E08A819B81009719F036
:10199000FE01EC01F9CFCE01029628813981820F38
:1019A000931F20911F02309120022817390769F4F4
:1019B000309729F4109222021092210202C0138261
:1019C0001282D0932002C0931F02DF91CF9108951D
:1019D000A0E0B0E0EEEEFCE00C94FB0DEC01CB01DE
:1019E000209719F40E94C10BB8C0FE01E60FF71F43
:1019F0009E0122503109E217F30708F4ACC0D90167
:101A00000D911C91119706171707B8F005301105B5
:101A100008F49FC0A801445051094617570708F41D
:101A200098C002501109061B170B019311936D9377
:101A30007C93CF010E94590C8CC05B01A01AB10AA3
:101A40004E01800E911EA0912102B0912202612CC4
:101A5000712C60E070E0109709F449C0A815B90531
:101A6000C9F5ED90FC901197670142E0C40ED11CBE
:101A7000CA14DB0478F147018A189B08640142E02C
:101A8000C40ED11C1296BC9012971396AC91B5E07F
:101A9000CB16D10440F0B282A38391828082D90117
:101AA0008D939C9309C00E5F1F4F0E0D1F1DF901F2
:101AB00011830083EB2DFA2F6115710531F0DB01E5
:101AC0001396FC93EE93129744C0F0932202E09396
:101AD00021023FC06D917C9111976616770608F43C
:101AE0003B01BD0112960D90BC91A02DB4CF609129
:101AF0001F027091200268157905E9F468167906CD
:101B0000D0F440910001509101014115510541F47B
:101B10004DB75EB76091040170910501461B570BEC
:101B2000E417F507C0F4F0932002E0931F02F901D7
:101B3000918380830EC00E94C10B7C01009759F0F5
:101B4000A801BE010E94B20DCE010E94590CC7012E
:101B500004C0CE0102C080E090E0CDB7DEB7EEE079
:101B60000C94170EFB01DC0102C001900D92415054
:101B70005040D8F70895FB01DC0101900D92002040
:101B8000E1F70895BB274A3031F4992322F4BDE2EE
:101B9000909581959F4F0C94CE0DBB27FB01552747
:101BA000AA27880F991FAA1FA41710F0A41B8395BA
:101BB0005051B9F7A05DAA3308F0A95DA193009731
:101BC00079F7B111B1931192CB010C94E70DDC01BF
:101BD000FC01672F71917723E1F7329704C07C9164
:101BE0006D9370836291AE17BF07C8F308952F926B
:101BF0003F924F925F926F927F928F929F92AF929D
:101C0000BF92CF92DF92EF92FF920F931F93CF93E9
:101C1000DF93CDB7DEB7CA1BDB0B0FB6F894DEBF80
:101C20000FBECDBF09942A88398848885F846E84A6
:101C30007D848C849B84AA84B984C884DF80EE80F0
:101C4000FD800C811B81AA81B981CE0FD11D0FB6F9
:101C5000F894DEBF0FBECDBFED010895F894FFCF1D
:101C600000002302800053706565642000206F6EC1
:101C70002072756E2000537065656400206F6E20C1
:101C80007475726E200043757220737461746520E0
:101C90003D20000000000000067C0782059B058DAA
:101CA00005DE050D0A006E616E00696E66006F76D6
:041CB00066002E009C
:00000001FF
